:100000000C94C7000C94F0000C94F0000C94F000D9
:100010000C94F0000C94F0000C9482050C94F00009
:100020000C94F0000C94F0000C94F0000C94540B21
:100030000C94F0000C94F0000C94B30A0C94F000B3
:100040000C94F0000C94F0000C94F0000C94F00070
:100050000C94F0000C94F0000C94F0000C94760BCF
:100060000C94F0000C94F0000306E705BB05B20504
:10007000B80561065606D60CB60BB60BD30CDF0CD2
:10008000CF0CE60CE20CEA0CA20C740C6E616E0054
:10009000696E660000407A10F35A00A0724E18098B
:1000A0000010A5D4E80000E87648170000E40B54DF
:1000B000020000CA9A3B000000E1F50500008096AE
:1000C0009800000040420F000000A08601000000E0
:1000D000102700000000E80300000000640000009A
:1000E00000000A00000000000100000000002C7663
:1000F000D888DC674F0823DFC1DFAE59E1B1B7967E
:10010000E5E3E453C63AE651997696E8E6C28426DA
:10011000EB898C9B62ED407C6FFCEFBC9C9F40F2B6
:10012000BAA56FA5F490055A2AF75C936B6CF96732
:100130006DC11BFCE0E40D47FEF520E6B500D0EDF7
:10014000902E0300943577050080841E080000205F
:100150004E0A000000C80C333333330F986E1283FD
:100160001141EF8D2114893BE65516CFFEE6DB18D1
:10017000D1844B381BF77C1D901DA4BBE424203296
:1001800084725E228100C9F124ECA1E53D2711248F
:100190001FBECFEFD8E0DEBFCDBF14BE0FB6F894C0
:1001A000A895809160008861809360001092600043
:1001B0000FBE11E0A0E0B1E0E6E5FEE202C005906E
:1001C0000D92A432B107D9F723E0A4E2B1E001C057
:1001D0001D92AA30B207E1F70E9436120C9429173B
:1001E0000C940000CF93DF930E94C4070196E1F3C3
:1001F0000E945A0790910503890F0E94C107C09180
:100200000E01D0910F01FE01E051FF4F10823A968E
:10021000DE01A158BE4F8C9180833091050320915F
:100220000603CE018F509F4FFC013083319620830F
:100230000E947D0DC550DF4F998388838FE3DF9146
:10024000CF910C94300B8F929F92AF92BF92CF922E
:10025000DF92EF92FF920F931F93CF93DF93C091A2
:100260000E01D0910F016E0120EFC20ED11CF601DC
:100270002081215027FD40C04091CF025091D002F3
:100280006091D1027091D202822F022E000C990B44
:10029000DC01AA0FBB1FA80FB91FAA0FBB1FAA0F13
:1002A000BB1FAC0FBD1F13968D909D90AD90BC9061
:1002B0001697481959096A097B09493F5105610593
:1002C0007105C0F0F6013081832F90E00197FC01A9
:1002D000EE0FFF1FE80FF91FEE0FFF1FEE0FFF1FBE
:1002E000EC0FFD1F8CE001900D928A95E1F73150E3
:1002F000F6013083215000F6FE01E358FE4F808165
:1003000031969081981709F47DC09E0140E1849F49
:10031000200D311D1124C901875F9E4F0E94E10706
:10032000C0910E01D0910F018E0103581E4FF801AC
:10033000A081B0E09D0122953295307F3227207F49
:100340003227F901E350FF4FEC0FFD1F60817181EF
:100350002C0F3D1FF901EA5FFE4F80806E01F0EF28
:10036000CF0ED11CF6019080992009F470C028812D
:1003700039816217730709F46EC0FE013C96AA2406
:10038000AA94A90CB12C2FEFA21AB20A21E030E0F6
:1003900009C0A901E080F1802F5F3F4F3C96E6162F
:1003A000F70631F0922FA216B30699F7A50155274B
:1003B000991609F443C0FA01EE0FFF1FE40FF51F71
:1003C000EE0FFF1FEE0FFF1FEC0FFD1F7183608309
:1003D0004091CF025091D0026091D1027091D2022F
:1003E0004383548365837683828383861196A770C3
:1003F000BB278A2FF801A083FE01E258FE4F9081AF
:100400009A1383CF60910803809107030E94FB0633
:10041000E0910E01F0910F01E051FF4F60816111F9
:100420001DC0DF91CF911F910F91FF90EF90DF9052
:10043000CF90BF90AF909F908F90089532E1391583
:1004400008F4B9CF91E0990DF6019083B4CF40E064
:1004500050E091E0F9CF40E050E0ADCF70E080E0B7
:1004600090E00E94E21320E030E040EA51E40E9474
:10047000381320E030E040E551E40E946E140E9401
:10048000B113E62FF0E0E050FF4F8081DF91CF9174
:100490001F910F91FF90EF90DF90CF90BF90AF90A2
:1004A0009F908F900C94300BE0910E01F0910F0112
:1004B000E051FF4F6081611101C0089570E080E05C
:1004C00090E00E94E21320E030E040EA51E40E9414
:1004D000381320E030E040E551E40E946E140E94A1
:1004E000B113E62FF0E0E050FF4F80810C94300B09
:1004F000CF93DF93C0910E01D0910F01FE01E65022
:10050000FF4FDE01A158BE4F8C91808330910503CF
:1005100020910603CE018F509F4FFC01308331960E
:1005200020830E947D0DC550DF4F99838883DF9122
:10053000CF910895CF92DF92EF92FF920F931F9386
:10054000CF93DF9380910E0190910F01FC01E3584E
:10055000FE4F208130E1239F800D911D1124875F84
:100560009E4F0E94E10700910E0110910F01F801CA
:10057000E358FE4F208190E1299F90011124F90159
:10058000E350FF4FE00FF11FC081D181200F311FD9
:10059000F901EA5FFE4FC0807801E0EFEE0EF11C3A
:1005A000F701D080DD2009F44BC0F80120813181B2
:1005B000C217D30709F448C0F8013C96AFEFAD0D60
:1005C000B0E0119621E030E008C0608171812F5FBA
:1005D0003F4F3C966C177D0731F0922FA9012A17E7
:1005E0003B0799F755279D1529F1FA01EE0FFF1FDB
:1005F0004E0F5F1F440F551F440F551FF801E40FA6
:10060000F51FD183C0834091CF025091D0026091F9
:10061000D1027091D20243835483658376838283AF
:10062000C386DF91CF911F910F91FF90EF90DF90E4
:10063000CF9008959331C8F69F5FF7019083D5CF8F
:1006400040E050E091E0F9CF40E050E0CECF8F9213
:100650009F92AF92BF92CF92DF92EF92FF92CF9391
:10066000DF9320910E0130910F01E901C051DF4F5E
:100670004881415047FD3FC0C090CF02D090D0028A
:10068000E090D102F090D202842F042E000C990B3E
:10069000DC01AA0FBB1FA80FB91FAA0FBB1FAA0F0F
:1006A000BB1FA20FB31F13968D909D90AD90BC9071
:1006B0001697C818D908EA08FB0889EFC816D104AC
:1006C000E104F104B0F05881852F90E00197FC011E
:1006D000EE0FFF1FE80FF91FEE0FFF1FEE0FFF1FBA
:1006E000E20FF31F8CE001900D928A95E1F75150D3
:1006F0005883415008F6DF91CF91FF90EF90DF9043
:10070000CF90BF90AF909F908F900895E0910E0191
:10071000F0910F01E051FF4F10820895609108039E
:10072000809107030E94FB06E0910E01F0910F01FA
:10073000E051FF4F6081611101C0089570E080E0D9
:1007400090E00E94E21320E030E040EA51E40E9491
:10075000381320E030E040E551E40E946E140E941E
:10076000B113E62FF0E0E050FF4F80810C94300B86
:10077000CF93DF93C82FD62F8823C1F09091B30079
:1007800081E0911122C08195D11119C0882341F0D7
:100790008FEF60E00E94FB068FE090E00E94F00681
:1007A0006D2F8C2FDF91CF910C94FB066623C1F344
:1007B0008091B4008111F4CF80E06FEFEBCF909186
:1007C000B4009111E3CF6FEFE5CF80E08195DD2399
:1007D000E9F2F5CFCF93DF938130D1F198F18230F8
:1007E000C1F0833061F5C091F502CC2361F08091B6
:1007F000B400811108C06FEF80E00E94FB068FE01B
:1008000090E00E94F0066C2F80E0DF91CF910C9475
:10081000FB06C0910903CC2361F08091B3008111E4
:1008200008C060E08FEF0E94FB068FE090E00E941E
:10083000F00660E08C2FDF91CF910C94FB06DF91E6
:10084000CF91089560E080E0DF91CF910C94FB069A
:10085000C0910803D0910703DD23E1F09091B3002C
:1008600081E0911180E08195CC2321F09091B4003A
:100870009923B9F0882341F08FEF60E00E94FB06D6
:100880008FE090E00E94F0066C2F8D2FDF91CF91CA
:100890000C94FB06CC23C1F38091B4008111F4CFFA
:1008A00080E06FEFEBCF0F931F93CF93DF93FC01AB
:1008B00040910E0150910F018A0102581E4FD8013C
:1008C0009C91292F30E0EA01B0E19B9FC00DD11D22
:1008D0001124DE01A350BF4F9CE001900D929A9528
:1008E000E1F7C75FDE4FFB0180819181A281B38177
:1008F00088839983AA83BB83C9010196877099274E
:10090000D8018C93FA01E358FE4F2081281304C0CC
:100910000196877099278083DF91CF911F910F9166
:10092000089580910E0190910F018F509F4F08956F
:10093000089580E090E008950895DF92EF92FF928D
:100940000F931F93CF93DF93F89414B817B81AB886
:1009500015B818B81BB8529A5A9A14BC85E085BDD0
:100960008FEF87BD82E080936E001092800010921E
:1009700081002FE83BE0309389002093880080932A
:100980006F005398239891EA9093B0008093B10040
:100990001092B4001092B3008BE080BF83E080938C
:1009A0007F0086E080937C0083E880937A008091CA
:1009B0007A00806480937A0080917A0086FDFCCF73
:1009C00010927C0083EA80937A0081E080937B0020
:1009D00081E090E00E94BF168F3F11F08093660087
:1009E0001092D302C1E0C093AC02C093F002109207
:1009F000CA021092040380E990E00E94BF1680931F
:100A0000C9028091C902887311F0C093C902109283
:100A1000F4021092F3028FEF90E09093F202809331
:100A2000F1021092CF021092D0021092D1021092D5
:100A3000D20281E08093270182E49FE09093030338
:100A40008093020380EB90E00E94BF16C82F81EBD9
:100A500090E00E94BF162C2F30E0382B3093060315
:100A60002093050385E090E00E94BF168093090360
:100A700089E090E00E94BF168093F5028CE090E040
:100A80000E94BF168093070384E190E00E94BF1686
:100A90008093080354EDE52E52E0F52E0DEA12E0A6
:100AA000C0E2D0E0CE010E94BF16D82ECE01019642
:100AB0000E94BF162D2D30E0322F2227282BF70160
:100AC000219331937F01CE01C0960E94BF16D82E8C
:100AD000CE01C1960E94BF162D2D30E0322F222765
:100AE000282BF801219331938F012296CC33D10525
:100AF000C9F67894DF91CF911F910F91FF90EF90FD
:100B0000DF9008951F920F920FB60F9211248F93CA
:100B10000FB6F894A895809160008861809360007A
:100B2000109260000FBE8F910F900FBE0F901F901C
:100B300018953C01EB0110E099249A9484E0C82EAA
:100B400096E0A92E23E8B22E38E1D32E49E2E42E16
:100B5000E0912701F0E0E730F105D0F7EC5CFF4FC2
:100B60000C946B12112309F405C1C092270111E006
:100B7000FE010995EDCF8091D302811105C1F89452
:100B8000A0927C00B0927A0080917A008064809379
:100B90007A0080917A0086FDFCCF80917800909158
:100BA000790078948B3AE2E09E070CF0E6C0893831
:100BB000F2E09F070CF0EFC0873692400CF4E4C0DF
:100BC000559A549A3B9A3A9A3D983C98C1CF559879
:100BD00054983B9A3A9A3D983C98EFECF7E031975D
:100BE000F1F700C00000559854983B983A983D980A
:100BF0003C98FFEF21EE84E0F15020408040E1F787
:100C000000C00000A5CFF89480B7877F80BF809197
:100C10007A008F7780937A0014B817B81AB815B88D
:100C200018B81BB80FB6F894A895D09260000FBE04
:100C3000E09260008091600080648093600083B7E0
:100C4000817F846083BFF89483B7816083BF789489
:100C5000889583B78E7F83BF78941092D302529A7F
:100C60005A9A80917A00806880937A0087E592E0B2
:100C70000197F1F700C0000080B7886180BF559AE6
:100C8000549A3B9A3A9A3D9A3C9AEFE1FEE43197A6
:100C9000F1F700C000008091D30281115BC055982C
:100CA00054983B983A983D983C9852CF80912501B2
:100CB000811125C01092B3001092B4001092260149
:100CC00047CF4899ECCF559A54983B983A983D981D
:100CD0003C988FEC97E00197F1F700C00000559821
:100CE00054983B983A983D983C989FEFE1EEF4E099
:100CF0009150E040F040E1F700C0000029CF909112
:100D0000250180912601981709F422CF80912501B1
:100D10008093260180912501813009F450C0809193
:100D200025011092B3009092B4008230D9F19092D4
:100D3000B3009092B4008FE295E70197F1F700C0FD
:100D4000000080910803909107039093B300809373
:100D5000B400FECE559A549A3B983A983D983C98E8
:100D6000FFEF20E782E0F15020408040E1F700C033
:100D7000000095CFF3010995F8CE559854983B9A09
:100D80003A9A3D983C98E4CE559A549A3B983A98B2
:100D90003D983C98DDCE559854983B983A983D9AAA
:100DA0003C9AD6CEEFE2F5E73197F1F700C00000AC
:100DB0008091F5021092B3008093B400C9CE909256
:100DC000B3001092B4008FE295E70197F1F700C0ED
:100DD0000000809109038093B3001092B400B8CE54
:100DE00007C0EFECF7E03197F1F700C00000019782
:100DF0000097B9F708958093B3006093B400089505
:100E00008FEF8093B3008093B4008FE090E0EFEC1D
:100E1000F7E03197F1F700C000000197C1F708959E
:100E20008091D30281111EC0F89487E080937C00EA
:100E300083E880937A0080917A00806480937A00BE
:100E400080917A0086FDFCCF8091780090917900A6
:100E500010927C0023EA20937A0021E020937B000B
:100E6000789408958FEF9FEF08958091D3028111B8
:100E70001EC0F89488EC80937C0087E880937A0009
:100E800080917A00806480937A0080917A0086FD58
:100E9000FCCF809178009091790010927C0023EA39
:100EA00020937A0021E020937B00789408958FEFBF
:100EB0009FEF08950F931F93CF93DF93E0E0F0E04F
:100EC00080E003EA11E0D6E0C3E8A1E0B0E060E82A
:100ED00070E0F894D0937C00C0937A0090917A00EF
:100EE000906490937A0090917A0096FDFCCF2091C7
:100EF000780030917900217090917A0090649093FD
:100F00007A0090917A0096FDFCCF40917800509144
:100F1000790010927C0000937A0010937B00789403
:100F20004170241303C06150710999F6222339F0EE
:100F30009D010E2E01C0220F0A94EAF7822B3196F2
:100F4000E830F10509F0C3CFDF91CF911F910F91E8
:100F5000089580911001982F990F990F990F892763
:100F60009091240121E0290F20932401282F22951C
:100F7000269527708227969596958927809310014C
:100F800008958093100108958091D302811116C0B5
:100F9000F89486E080937C0083E880937A008091C7
:100FA0007A00806480937A0080917A0086FDFCCF7D
:100FB0008091780090917900789408958FEF9FEF59
:100FC00008952F923F924F925F926F927F928F92ED
:100FD0009F92AF92BF92CF92DF92EF92FF920F93C8
:100FE0001F93CF93DF9300D000D000D0CDB7DEB7F2
:100FF0001C01DC0112960D90BC91A02DBE83AD8327
:10100000A438E3E0BE070CF0CBC08091AD02909114
:10101000AE028A179B0708F48CC10091AF021091B1
:10102000B0020A171B0708F422C20091B102109106
:10103000B2020A171B0708F428C20091B3021091EC
:10104000B4020A171B0708F424C20091B5021091DC
:10105000B6020A171B0708F425C20091B7021091C7
:10106000B8020A171B0708F4E6C10091B9021091F3
:10107000BA020A171B0708F41EC20091BB021091A6
:10108000BC020A171B0708F41FC20091BD02109191
:10109000BE020A171B0708F425C20091BF02109177
:1010A000C0020A171B0708F426C20091C102109162
:1010B000C2020A171B0708F422C20091C302109152
:1010C000C4020A171B0708F423C20091C50210913D
:1010D000C6020A171B0708F424C20091C702109128
:1010E000C8020A171B0708F425C280E090E0A0EDB3
:1010F000B0E489839A83AB83BC832CE0E22EF12C8D
:10110000F701EE0FFF1FE355FD4F80819181B8017C
:10111000681B790B80E090E00E94E0139B01AC011A
:101120000E94CC126B017C01AD81BE81BD01BB0F61
:10113000880B990B0E94E2134B015C01B80180E01F
:1011400090E00E94E0132B013C0129813A814B8100
:101150005C81C701B6010E946E149B01AC01C30102
:10116000B2010E94CB129B01AC01C501B4010E94E7
:10117000CB1220E030E040E251E40E946E140E9465
:10118000AA138B01C701B6010E94AA13AB01BC01CF
:10119000C801BA010E9457126983ED81FE81CBC05C
:1011A000DC01CD90DC908091D4029091D5028C1519
:1011B0009D0508F4DFC0BFEFB9830091D6021091FE
:1011C000D7020C151D0508F456C10091D8021091E4
:1011D000D9020C151D0508F453C10091DA021091D3
:1011E000DB020C151D0508F458C10091DC021091BA
:1011F000DD020C151D0508F459C10091DE021091A5
:10120000DF020C151D0508F4B7C00091E002109133
:10121000E1020C151D0508F452C10091E202109183
:10122000E3020C151D0508F453C10091E40210916E
:10123000E5020C151D0508F450C10091E60210915D
:10124000E7020C151D0508F451C10091E802109148
:10125000E9020C151D0508F456C10091EA0210912F
:10126000EB020C151D0508F457C10091EC0210911A
:10127000ED020C151D0508F458C10091EE02109105
:10128000EF020C151D0508F459C11AE5B981BF3FDD
:1012900009F459C1ED81FE81BF01FF0F880B990B45
:1012A0000E94E2134B015C01F9816F2F70E080E036
:1012B00090E00E94E0136B017C01A501940160E0C5
:1012C00070E081E694E40E94CB129B01AC01C7015F
:1012D000B6010E946E146B017C01612F70E080E00A
:1012E00090E00E94E0132B013C0120E030E04FE24F
:1012F00054E4C501B4010E94CB129B01AC01C301AF
:10130000B2010E946E149B01AC01C701B6010E949C
:10131000CC1220E030E048E453E40E94381320E08F
:1013200030E044E052E40E94CC120E94B113862FB8
:1013300008C01982FD01ED3BF2400CF007C1898124
:101340008F5D26960FB6F894DEBF0FBECDBFDF913E
:10135000CF911F910F91FF90EF90DF90CF90BF90B2
:10136000AF909F908F907F906F905F904F903F9045
:101370002F90089581E2E5CFF5E03F2EE5E0F0E023
:10138000EE0FFF1FEE52FD4F80819181B801681B67
:10139000790B80E090E00E94E0139B01AC010E9479
:1013A000CC124B015C01B601DD0C880B990B0E943D
:1013B000E2132B013C01B80180E090E00E94E013B1
:1013C0006B017C01632D70E080E090E00E94E013EF
:1013D00020E030E040E05FE30E946E1420E030E067
:1013E000A9010E94CC12A50194010E946E149B01D8
:1013F000AC01C701B6010E94CB129B01AC01C30135
:10140000B2010E94CB1220E030E040E251E40E94A1
:101410006E140E94AA138B01C501B4010E94AA1385
:10142000AB01BC01C801BA010E945712162F6F3FD1
:1014300009F02CCF84CF65E085E090E07C01F1E0FD
:10144000EF1AF10870E080E090E00E94E01320E0E5
:1014500030E040E05FE30E946E1420E030E0A9013C
:101460000E94CC1269837A838B839C8349CE61E08E
:1014700081E090E0E3CF33243394E1E0F0E080CFEB
:1014800082E0382EE2E0F0E07BCF62E082E090E0A4
:10149000D5CF63E083E090E0D1CFB3E03B2EE3E033
:1014A000F0E06ECF64E084E090E0C8CFA4E03A2E94
:1014B000E4E0F0E065CF66E086E090E0BFCFE6E0F4
:1014C0003E2EE6E0F0E05CCF67E087E090E0B6CF4C
:1014D00077E0372EE7E0F0E053CF68E0362EE8E023
:1014E000F0E04ECF68E088E090E0A8CF59E0352EDC
:1014F000E9E0F0E045CF69E089E090E09FCF6AE065
:101500008AE090E09BCF4AE0342EEAE0F0E038CF6A
:101510006BE08BE090E092CF3BE0332EEBE0F0E02D
:101520002FCF6CE08CE090E089CF2CE0322EECE005
:10153000F0E026CF6DE08DE090E080CF9DE0392E89
:10154000EDE0F0E01DCF81E2810FFBCED101CD9027
:10155000DC908091D4029091D5028C159D0508F005
:101560002CCE10E093CE1F920F920FB60F92112443
:101570002F933F934F935F936F937F938F939F939B
:10158000AF93BF93EF93FF932091F3023091F40256
:101590008091F1029091F202820F931F9093F402D6
:1015A0008093F3028FEF90E09093F2028093F10228
:1015B0008FEF87BD8091CF029091D002A091D10290
:1015C000B091D2020196A11DB11D8093CF029093DC
:1015D000D002A093D102B093D2028091D3028111A4
:1015E0000FC080910203909103032091F302309188
:1015F000F4028217930720F480912701843089F048
:10160000FF91EF91BF91AF919F918F917F916F91DA
:101610005F914F913F912F910F900FBE0F901F90B0
:101620001895E0911301F09114010995009741F389
:101630000E94360E81110AC00E9427159C01332793
:101640003093F2022093F10287BDDACFE0911101CD
:10165000F091120109951092F4021092F302D0CF8A
:1016600080FF11C0559A81FF11C0549A82FF11C0AA
:101670003B9A83FF11C03A9A84FF11C03D9A85FDC1
:1016800011C03C980895559881FDEFCF549882FD84
:10169000EFCF3B9883FDEFCF3A9884FDEFCF3D9895
:1016A00085FFEFCF3C9A08951F920F920FB60F92CD
:1016B00011248F939F9310928100109285001092B5
:1016C000840081E08093AC028093F0021092D302F8
:1016D00010927C0093EA90937A0080937B009F9114
:1016E0008F910F900FBE0F901F9018951F920F9221
:1016F0000FB60F9211242F933F934F935F936F93E5
:101700007F938F939F93AF93BF93CF93DF93EF9389
:10171000FF93209184003091850041E04093D302F3
:101720008091AC028823A9F1109285001092840068
:1017300040938100109204031092AC028091F00259
:101740008823A1F080917A0086FDFCCF80917800FB
:10175000909179009093CE028093CD0281E08093A6
:101760007C0093EA90937A0080937B00FF91EF9145
:10177000DF91CF91BF91AF919F918F917F916F91A9
:101780005F914F913F912F910F900FBE0F901F903F
:101790001895C901875891098437994008F04FC0BE
:1017A00026583109A4EFB0E00E947112AA27BB2786
:1017B000883008F47BC04093AC028091F002811124
:1017C00052C08091CA02E82FF0E0EA50FD4F90919C
:1017D000040390838F5F8093CA028C3039F6109295
:1017E000810010928500109284004093F0021092C4
:1017F000D302C0910003D091010386EF92E00E94D2
:101800007D0DC817D90709F0B1CF8091FF0287FF7E
:1018100061C098E7980F933030F053982398109256
:10182000B4001092B30090E0FC01E058F109EB30F5
:10183000F10508F09BCFE55CFF4F0C946B12109202
:10184000810010928500109284004093AC02409376
:10185000F0021092D30210927C0083EA80937A0007
:1018600040937B0083CF80917A0086FDFCCF8091EE
:101870007800909179009093CC028093CB021092E3
:101880007C0083EA80937A0081E080937B009091D2
:1018900004039923D1F010928100109285001092D8
:1018A00084008093F0021092D30260CF21E030E0F8
:1018B000F90102C0EE0FFF1F8A95E2F7CF01909168
:1018C0000403892B8093040351CF1092F0021092ED
:1018D000CA024CCFE0911501F09116016BEC72E059
:1018E00086EF92E0099542CF8091F602823009F4AA
:1018F000DDC008F4BAC0833009F4C6C0843009F0F2
:10190000B1C0809125019091FC02833009F4E3C0BD
:101910008091FB021092260123E020932501809301
:1019200007039093080380912701863009F41ECFA6
:10193000539A239A1092B4001092B30086E08093D9
:10194000270114CF80912701863099F0539A239A6A
:101950001092B4001092B300559854983B983A985E
:101960003D983C98109225011092260186E08093C4
:10197000270181E090E09C010090F60202C0220F56
:10198000331F0A94E2F780910503909106038223A6
:101990009323892B09F086C010922501E7CE81E0C0
:1019A00080932701E3CEE0E0F0E0099580916E009E
:1019B0008D7F80936E0016BCE0E0F0E709951092F1
:1019C0002701D4CE82E080932701D0CE85E080939A
:1019D0002701CCCE80912701833009F4C7CE8091B6
:1019E0002701843009F4C2CE539A239A1092B4008E
:1019F0001092B30083E080932701B8CE8091270135
:101A0000863009F0B3CE6091050380EB90E00E9430
:101A1000C7166091060381EB90E00E94C7166091A3
:101A2000090385E090E00E94C7166091F50289E005
:101A300090E00E94C716609107038CE090E00E943E
:101A4000C7166091080384E190E00E94C71653987E
:101A500023981092B4001092B30081E08093270184
:101A60008091F60281115FCF81CE882339F28130D7
:101A7000C9F78091F7029091F80290930603809342
:101A80000503109225014FCF80912501823071F11D
:101A90008091FA021092260192E0909325018093A2
:101AA000F50241CF81E08093250160CE8091250130
:101AB000813051F08091F9021092260191E09093CB
:101AC0002501809309032FCF8091F902909109039A
:101AD0008913F2CF28CF80910803981319CF8091F2
:101AE000FB0220910703821315CF1DCF8091FA02CC
:101AF0009091F5028913CECF16CFFC0180812FEF94
:101B00003FEF2827022E2295207F2025032E322FFB
:101B100022952F700226269532272327220F220F87
:101B2000220F202581812827022E2295207F202523
:101B3000032E322F22952F70022626953227232737
:101B4000220F220F220F202582812827022E229584
:101B5000207F2025032E322F22952F7002262695D6
:101B600032272327220F220F220F202583812827A7
:101B7000022E2295207F2025032E322F22952F70B2
:101B80000226269532272327220F220F220F2025F7
:101B900084812827022E2295207F2025032E322F94
:101BA00022952F700226269532272327220F220FF7
:101BB000220F202585812827022E2295207F20258F
:101BC000032E322F22952F700226269532272327A7
:101BD000220F220F220F202586812827022E2295F0
:101BE000207F2025032E322F22952F700226269546
:101BF00032272327220F220F220F20258781282713
:101C0000022E2295207F2025032E322F22952F7021
:101C10000226269532272327220F220F220F202566
:101C200080852827022E2295207F2025032E322F03
:101C300022952F700226269532272327220F220F66
:101C4000220F20254185C9018427082E8295807F97
:101C50008025092E982F82958F70082686959827C3
:101C60008927880F880F880F802508950FB6F8946C
:101C7000A4B12091C9022A2B24B921E03091C902D4
:101C8000203029F0000025B1232B25B904C0000025
:101C90000000000000C0000000000000309525B1E9
:101CA000232325B92EEA2A95F1F72BEE30B735FF1D
:101CB0000AC0A4B93091C902309525B1232325B9B2
:101CC0000FBE80E0089500002A9581F721E0309151
:101CD000C902203029F0000025B1232B25B904C00A
:101CE00000000000000000C000000000000030956F
:101CF00025B1232325B9000024E52A95F1F7FC013D
:101D00008CE0619170E0660F771F616072609AE00D
:101D100041E050E09A0126233723232B3091C9025A
:101D2000203029F0000025B1232B25B904C0000084
:101D30000000000000C0000000000000309525B148
:101D4000232325B9000021E52A95F1F7440F551FFB
:101D50009A9501F78A95A9F620B7206120BFA4B90A
:101D60003091C902309525B1232325B90FBE81E0FA
:101D70000895A0E1B0E0EFEBFEE00C9480127C014E
:101D80001B016A01FC0117821682838181FF44C313
:101D90009E012F5F3F4F3901F7019381F10193FDC0
:101DA000859193FF81911F01882309F431C3853206
:101DB00039F493FD859193FF81911F01853239F4A8
:101DC000B70190E00E94251656016501E5CF10E0AD
:101DD000512C912CFFE1F915D8F08B3279F038F4C1
:101DE000803279F08332A1F4F92DF0612EC08D326A
:101DF00061F0803369F4292D21602DC0392D3260C6
:101E0000932E892D8460982E2AC0E92DE86015C094
:101E100097FC2DC020ED280F2A3088F496FE06C0CE
:101E20003AE0139F200D1124122F19C08AE0589E0A
:101E3000200D1124522EE92DE0629E2E10C08E320C
:101E400031F496FCE5C2F92DF0649F2E08C08C3663
:101E500021F4292D2068922E02C0883641F4F10128
:101E600093FD859193FF81911F018111B3CF9BEB6E
:101E7000980F933020F4992D9061805E07C09BE904
:101E8000980F933008F066C1992D9F7E96FF16E05B
:101E90009F73992E853619F49064992E08C0863662
:101EA00021F4392F3068932E02C01111115097FE82
:101EB00007C01C3350F444244394410E27E00BC068
:101EC000183038F027E017E005C027E09CE3492EE2
:101ED00002C0212F412C560184E0A80EB11CF6014E
:101EE0006081718182819381042DA3010E94371545
:101EF0006C01F981FC87F0FF02C0F3FF06C091FC82
:101F000006C092FE06C000E205C00DE203C00BE26F
:101F100001C000E08C858C7019F001115AC29BC27F
:101F200097FE10C04C0CFC85F4FF04C08A818133FD
:101F300009F44A94141474F528E0241578F588E01F
:101F4000482E2CC096FC2AC0812F90E08C159D0550
:101F50009CF03CEFC3163FEFD30674F0892D8068E8
:101F6000982E0AC0E2E0F0E0EC0FFD1FE10FF11D3A
:101F70008081803319F411501111F4CF97FE0EC0F7
:101F800044244394410E812F90E0C816D9062CF4C6
:101F90001C1904C04424439401C010E097FE06C0FD
:101FA0001C141D0434F4C601019605C085E090E0C0
:101FB00002C081E090E001110196112331F0212F40
:101FC00030E02F5F3F4F820F931F252D30E08217A7
:101FD000930714F4581A01C0512C892D897049F4C3
:101FE000552039F0B70180E290E00E9425165A94FE
:101FF000F7CF002329F0B701802F90E00E9425162B
:1020000093FC09C0552039F0B70180E390E00E94AD
:1020100025165A94F7CF97FE4CC04601D7FE02C052
:10202000812C912CC60188199909F301E80FF91F39
:10203000FE87ED87960124193109388B2F87012FF0
:1020400010E01195019511093FEF8316930629F4CD
:10205000B7018EE290E00E942516C814D9044CF016
:102060008F8598898815990524F4ED85FE858181F1
:1020700001C080E3F1E08F1A91082D853E852F5F26
:102080003F4F3E872D87801691062CF0B70190E0D8
:102090000E942516D9CFC814D90441F49A819633E9
:1020A00020F4953319F43C8534FF81E3B70190E0C7
:1020B0004EC08A81813319F09C859F7E9C87B70131
:1020C00090E00E942516111105C094FC18C085E609
:1020D00090E017C0B7018EE290E00E9425161E5FC7
:1020E00082E001E0080FF301E80FF11D8081B701E4
:1020F00090E00E942516802F0113F3CFE6CF85E4F0
:1021000090E0B7010E942516D7FC06C0C114D10487
:1021100041F4EC85E4FF05C0D194C194D1088DE26F
:1021200001C08BE2B70190E00E94251680E32AE00F
:10213000C216D1042CF08F5FFAE0CF1AD108F7CF86
:10214000B70190E00E942516B701C601C0960E9413
:10215000251654C1833631F0833779F0833509F081
:1021600056C020C0560132E0A30EB11CF60180819A
:10217000898301E010E0630112C05601F2E0AF0E66
:10218000B11CF601C080D18096FE03C0612F70E0C3
:1021900002C06FEF7FEFC6010E941A168C01F92D65
:1021A000FF7714C0560122E0A20EB11CF601C080D8
:1021B000D18096FE03C0612F70E002C06FEF7FEF09
:1021C000C6010E940F168C01F92DF0689F2EF3FDB9
:1021D0001AC0852D90E008171907A8F4B70180E20E
:1021E00090E00E9425165A94F4CFF60197FC859151
:1021F00097FE81916F01B70190E00E942516511062
:102200005A94015011090115110579F7F7C0843668
:1022100011F0893661F5560197FE09C024E0A20E3F
:10222000B11CF60160817181828193810AC0F2E064
:10223000AF0EB11CF60160817181072E000C880B76
:10224000990BF92DFF769F2E97FF09C090958095E9
:10225000709561957F4F8F4F9F4FF0689F2E2AE0BA
:1022600030E0A3010E946116C82EC6183FC0092D98
:10227000853721F40F7E2AE030E01DC0097F8F36BC
:1022800091F018F4883559F0C3C0803719F08837B9
:1022900011F0BEC0006104FF09C0046007C094FED5
:1022A00008C0066006C028E030E005C020E130E04C
:1022B00002C020E132E0560107FF09C084E0A80E09
:1022C000B11CF601608171818281938108C0F2E0C6
:1022D000AF0EB11CF6016081718180E090E0A30136
:1022E0000E946116C82EC6180F77902E96FE0BC05E
:1022F000092D0E7FC11650F494FE0AC092FC08C04E
:10230000092D0E7E05C0DC2C092D03C0DC2C01C07C
:10231000D12E04FF0DC0FE01EC0DF11D8081803334
:1023200011F4097E09C002FF06C0D394D39404C0FF
:10233000802F867809F0D39403FD11C000FF06C0FA
:102340001C2DD51480F4150D1D190DC0D51458F48D
:10235000B70180E290E00E942516D394F7CFD51400
:1023600010F45D1801C0512C04FF10C0B70180E3C8
:1023700090E00E94251602FF17C001FD03C088E708
:1023800090E002C088E590E0B7010CC0802F86780D
:1023900059F001FF02C08BE201C080E207FD8DE22F
:1023A000B70190E00E942516C11638F4B70180E30A
:1023B00090E00E9425161150F7CFCA94F301EC0D5E
:1023C000F11D8081B70190E00E942516C110F5CF64
:1023D00015C0F4E0F51560F584E0581A93FE1FC0AF
:1023E000011127C02C8523FF2AC00CE810E0392DED
:1023F0003071932EF8018491811124C0552009F485
:10240000E4CCB70180E290E00E9425165A94F6CF02
:10241000F7018681978126C08FEF9FEF23C0B70118
:1024200080E290E00E9425165A945110F8CFD8CF40
:10243000512CB701802F90E00E942516D3CF00E9E0
:1024400010E0D5CF91108052B70190E00E94251680
:102450000F5F1F4FCFCF23E0251510F483E0BDCFD2
:10246000512CC0CF6096E2E10C949C120E949D0416
:1024700080910E0190910F01FC01E358FE4F1082F4
:102480003196108283E594E09093160180931501B4
:1024900081E994E0909314018093130163E271E069
:1024A00082EF90E00E94990580E090E0089597FB0C
:1024B000072E16F4009407D077FD09D00E94B712BA
:1024C00007FC05D03EF4909581959F4F0895709537
:1024D00061957F4F0895EE0FFF1F0590F491E02D59
:1024E0000994A29FB001B39FC001A39F700D811DED
:1024F0001124911DB29F700D811D1124911D08950D
:102500002F923F924F925F926F927F928F929F9203
:10251000AF92BF92CF92DF92EF92FF920F931F93F1
:10252000CF93DF93CDB7DEB7CA1BDB0B0FB6F894A2
:10253000DEBF0FBECDBF09942A88398848885F84E2
:102540006E847D848C849B84AA84B984C884DF8053
:10255000EE80FD800C811B81AA81B981CE0FD11D37
:102560000FB6F894DEBF0FBECDBFED010895AA1BD4
:10257000BB1B51E107C0AA1FBB1FA617B70710F06E
:10258000A61BB70B881F991F5A95A9F780959095A0
:10259000BC01CD0108955058BB27AA270E94E31221
:1025A0000C9434140E94261438F00E942D1420F04C
:1025B00039F49F3F19F426F40C9423140EF4E0959B
:1025C000E7FB0C941D14E92F0E94451458F3BA1729
:1025D000620773078407950720F079F4A6F50C9439
:1025E00067140EF4E0950B2EBA2FA02D0B01B90144
:1025F00090010C01CA01A0011124FF27591B99F079
:10260000593F50F4503E68F11A16F040A22F232F84
:10261000342F4427585FF3CF469537952795A795D4
:10262000F0405395C9F77EF41F16BA0B620B730B7B
:10263000840BBAF09150A1F0FF0FBB1F661F771FEC
:10264000881FC2F70EC0BA0F621F731F841F48F4A1
:10265000879577956795B795F7959E3F08F0B0CF2A
:102660009395880F08F09927EE0F97958795089511
:102670000E944C130C9434140E942D1458F00E94A4
:10268000261440F029F45F3F29F00C941D145111D9
:102690000C9468140C9423140E94451468F3992335
:1026A000B1F3552391F3951B550BBB27AA2762174E
:1026B0007307840738F09F5F5F4F220F331F441F5B
:1026C000AA1FA9F335D00E2E3AF0E0E832D091508F
:1026D0005040E695001CCAF72BD0FE2F29D0660F7C
:1026E000771F881FBB1F261737074807AB07B0E8BF
:1026F00009F0BB0B802DBF01FF2793585F4F3AF0C5
:102700009E3F510578F00C941D140C9468145F3FA3
:10271000E4F3983ED4F3869577956795B795F7954A
:102720009F5FC9F7880F911D9695879597F9089532
:10273000E1E0660F771F881FBB1F621773078407CE
:10274000BA0720F0621B730B840BBA0BEE1F88F7DD
:10275000E09508950E94B1136894B1110C94681427
:1027600008950E944D1488F09F5798F0B92F99272B
:10277000B751B0F0E1F0660F771F881F991F1AF06C
:10278000BA95C9F714C0B13091F00E946714B1E056
:1027900008950C946714672F782F8827B85F39F055
:1027A000B93FCCF3869577956795B395D9F73EF405
:1027B00090958095709561957F4F8F4F9F4F0895AD
:1027C000E89409C097FB3EF49095809570956195CB
:1027D0007F4F8F4F9F4F9923A9F0F92F96E9BB2781
:1027E0009395F695879577956795B795F111F8CFFD
:1027F000FAF4BB0F11F460FF1BC06F5F7F4F8F4F68
:102800009F4F16C0882311F096E911C0772321F05D
:102810009EE8872F762F05C0662371F096E8862FF5
:1028200070E060E02AF09A95660F771F881FDAF74C
:10283000880F9695879597F9089597F99F6780E88F
:1028400070E060E008959FEF80EC089500240A9402
:102850001616170618060906089500240A9412167B
:102860001306140605060895092E0394000C11F4AE
:10287000882352F0BB0F40F4BF2B11F460FF04C05B
:102880006F5F7F4F8F4F9F4F089557FD9058440FB4
:10289000551F59F05F3F71F04795880F97FB991FBF
:1028A00061F09F3F79F0879508951216130614067C
:1028B000551FF2CF4695F1DF08C016161706180609
:1028C000991FF1CF86957105610508940895E894E4
:1028D000BB2766277727CB0197F908950E948114BB
:1028E0000C9434140E94261438F00E942D1420F009
:1028F000952311F00C941D140C94231411240C94A2
:1029000068140E94451470F3959FC1F3950F50E031
:10291000551F629FF001729FBB27F00DB11D639F91
:10292000AA27F00DB11DAA1F649F6627B00DA11D37
:10293000661F829F2227B00DA11D621F739FB00DDD
:10294000A11D621F839FA00D611D221F749F33274D
:10295000A00D611D231F849F600D211D822F762FE6
:102960006A2F11249F5750409AF0F1F088234AF0C3
:10297000EE0FFF1FBB1F661F771F881F915050402F
:10298000A9F79E3F510580F00C941D140C94681417
:102990005F3FE4F3983ED4F3869577956795B795B6
:1029A000F795E7959F5FC1F7FE2B880F911D9695D0
:1029B000879597F908958F929F92AF92BF92CF9289
:1029C000DF92EF92FF92CF93DF93EC0168817981E0
:1029D0008A819B81611571058105910521F464E26D
:1029E00079ED8BE597E02DE133EF41E050E00E9477
:1029F000D51649015A019B01AC01A7EAB1E40E9436
:102A0000F4166B017C01ACEEB4EFA50194010E94B9
:102A10000217DC01CB018C0D9D1DAE1DBF1DB7FF44
:102A200003C00197A109B04888839983AA83BB8317
:102A30009F77DF91CF91FF90EF90DF90CF90BF9085
:102A4000AF909F908F9008950E94DB14089587E1C6
:102A500091E00E94DB140895A0E0B0E0809317019C
:102A600090931801A0931901B0931A01089528308A
:102A700008F027E03327DA01990F311D87FD9160B7
:102A800000966105710539F432602E5F3D9330E3A5
:102A90002A95E1F708959F3F30F080387105610570
:102AA00009F03C5F3C5F3D93913008F08068911DD8
:102AB000DF93CF931F930F93FF92EF92192F987F7D
:102AC0009695E92F96959695E90FFF27E251FF4FCE
:102AD00099273327EE24FF24A701E70105900894E6
:102AE000079428F4360FE71EF81E491F511D660F84
:102AF000771F881F991F0694A1F70590079428F463
:102B0000E70EF81E491F561FC11D770F881F991F1A
:102B1000661F0694A1F70590079428F4F80E491F44
:102B2000561FC71FD11D880F991F661F771F069458
:102B3000A1F70590079420F4490F561FC71FD81F0F
:102B4000990F661F771F881F0694A9F78491109527
:102B5000177041F0D695C79557954795F794E79428
:102B60001A95C1F7E4E9F0E0689415901591359154
:102B70006591959105907FE27395E118F10A430BF9
:102B8000560BC90BD009C0F7E10CF11E431F561FAD
:102B9000C91FD01D7EF4703311F48A95E6CFE894F6
:102BA000015030F0080F0AF40027021708F4202F14
:102BB0002395022F7A3328F079E37D932A95E9F75C
:102BC00010C07D932A9589F6069497956795379559
:102BD00017951794E118F10A430B560BC90BD0094E
:102BE00098F023957E9173957A3308F070E37C9387
:102BF0002013B8F77E9170617D9330F0839571E377
:102C00007D9370E32A95E1F71124EF90FF900F91E7
:102C10001F91CF91DF91992787FD90950895FC0131
:102C20000590615070400110D8F7809590958E0FF7
:102C30009F1F0895FC016150704001900110D8F76A
:102C4000809590958E0F9F1F08950F931F93CF939C
:102C5000DF93FB01238121FD03C08FEF9FEF2CC089
:102C600022FF16C0468157812481358142175307C0
:102C700044F4A081B1819D012F5F3F4F31832083B8
:102C80008C93268137812F5F3F4F3783268314C073
:102C90008B01EC01FB010084F185E02D0995892B66
:102CA000E1F6D80116968D919C911797019617968B
:102CB0009C938E931697CE01DF91CF911F910F9128
:102CC0000895FA01AA27283051F1203181F1E894C2
:102CD0006F936E7F6E5F7F4F8F4F9F4FAF4FB1E00F
:102CE0003ED0B4E03CD0670F781F891F9A1FA11D0A
:102CF000680F791F8A1F911DA11D6A0F711D811D0B
:102D0000911DA11D20D009F468943F912AE0269FCF
:102D100011243019305D3193DEF6CF010895462F2E
:102D20004770405D4193B3E00FD0C9F7F6CF462F0F
:102D30004F70405D4A3318F0495D31FD4052419378
:102D400002D0A9F7EACFB4E0A69597958795779535
:102D50006795BA95C9F700976105710508959B01BC
:102D6000AC010A2E06945795479537952795BA9545
:102D7000C9F7620F731F841F951FA01D0895F9994D
:102D8000FECF92BD81BDF89A992780B50895262F70
:102D9000F999FECF1FBA92BD81BD20BD0FB6F89440
:102DA000FA9AF99A0FBE01960895052E97FB1EF424
:102DB00000940E94EC1657FD07D00E94071707FCED
:102DC00003D04EF40C94EC16509540953095219517
:102DD0003F4F4F4F5F4F0895909580957095619547
:102DE0007F4F8F4F9F4F08950E947112A59F900DA6
:102DF000B49F900DA49F800D911D11240895B7FFDD
:102E00000C94F4160E94F416821B930B0895A1E211
:102E10001A2EAA1BBB1BFD010DC0AA1FBB1FEE1F54
:102E2000FF1FA217B307E407F50720F0A21BB30B9F
:102E3000E40BF50B661F771F881F991F1A9469F71B
:102E400060957095809590959B01AC01BD01CF0177
:062E50000895F894FFCF85
:102E5600030F0C3C302A000615020A082820280118
:102E6600AA9C049904980401000000F80000000FD1
:042E76000000000058
:00000001FF
