:100000000C9446000C946F000C946F000C946F00DD
:100010000C946F000C946F000C946A010C946F00A8
:100020000C946F000C946F000C946F000C94DB0820
:100030000C946F000C946F000C942E080C946F00BD
:100040000C946F000C946F000C946F000C946F0074
:100050000C946F000C946F000C946F000C94FD08CE
:100060000C946F000C946F009A024A02180201026D
:10007000F601D6013203990A3D093D09960A930A11
:100080008F0A8B0A870A6F0A430A1D0A11241FBEB2
:10009000CFEFD8E0DEBFCDBF14BE0FB6F894A89561
:1000A00080916000886180936000109260000FBEB4
:1000B00011E0A0E0B1E0E0E0FFE102C005900D92A8
:1000C000AE30B107D9F721E0AEE0B1E001C01D923A
:1000D000A337B207E1F70E94600C0C947E0F0C94DA
:1000E0000000089581E00E94B70884E690E00E9435
:1000F0006B0484E00E94B70884E690E00C946B04E3
:10010000089580E090E008950895DF92EF92FF92C5
:100110000F931F93CF93DF93F89414B817B81AB8BE
:1001200015B818B81BB8529A5A9A14BC85E085BD08
:100130008FEF87BD82E080936E0010928000109256
:1001400081002FE83BE03093890020938800809362
:100150006F005398239891EA9093B0008093B10078
:100160001092B4001092B3008BE080BF83E08093C4
:100170007F0086E080937C0083E880937A00809102
:100180007A00806480937A0080917A0086FDFCCFAB
:1001900010927C0083EA80937A0081E080937B0058
:1001A00081E090E00E94140F8F3F11F08093660071
:1001B00010923B01C1E0C0931401C093580110920A
:1001C000320110926C0180E990E00E94140F80933C
:1001D000310180913101887311F0C0933101109287
:1001E0005C0110925B018FEF90E090935A01809335
:1001F0005901109237011092380110923901109272
:100200003A0181E08093130182E49FE090936B01B7
:1002100080936A0180EB90E00E94140FC82F81EB5D
:1002200090E00E94140F2C2F30E0382B30936E0199
:1002300020936D0185E090E00E94140F809372017D
:1002400089E090E00E94140F80935D018CE090E0C3
:100250000E94140F8093700184E190E00E94140FBB
:10026000809371015CE3E52E51E0F52E05E111E08C
:10027000C0E2D0E0CE010E94140FD82ECE0101962C
:100280000E94140F2D2D30E0322F2227282BF7014A
:10029000219331937F01CE01C0960E94140FD82E76
:1002A000CE01C1960E94140F2D2D30E0322F22274F
:1002B000282BF801219331938F012296CC33D1055D
:1002C000C9F67894DF91CF911F910F91FF90EF9035
:1002D000DF9008951F920F920FB60F9211248F9303
:1002E0000FB6F894A89580916000886180936000B3
:1002F000109260000FBE8F910F900FBE0F901F9055
:1003000018952AE0EFEFFFEF66E033E890913B01AC
:1003100091112BC0F89460937C0030937A009091F7
:100320007A00906490937A0090917A0096FDFCCFC9
:10033000409178005091790078944D3C92E05907B3
:1003400024F4E417F5070CF4FA012150F9F6882398
:1003500051F0F89410927C0083EA80937A0081E057
:1003600080937B007894CF0108954FEF5FEFE9CF42
:100370007C018B01D12C99249A94D6E0C3E883EABE
:10038000582E8824839466246A94762C24E0A22E26
:1003900038E1B32E49E2C42EE0911301F0E0E730DA
:1003A000F105D0F7EC5CFF4F0C947F0C10920F011D
:1003B000489951C1559A54983B983A983D983C9821
:1003C0008FEC97E00197F1F700C000005598549822
:1003D0003B983A983D983C989FEFE1EEF4E09150BD
:1003E000E040F040E1F700C00000D6CF80913B0133
:1003F00081111BC080910F01853080F01092130194
:10040000CBCFDD2009F498C110920F01A092130107
:1004100080913B01DD24D394811107C0F894809131
:100420000E018F3F09F4D3C17894F8010995B4CF38
:1004300080913B01811196C1F894D0937C00C093C8
:100440007A0080917A00806480937A0080917A00AB
:1004500086FDFCCF809178009091790078949093FC
:1004600002018093010110920F018B3A22E0920762
:100470000CF03FC18938E2E09E070CF08EC1873650
:1004800092400CF475C1559A549A3B9A3A9A3D9809
:100490003C9882CF80913B01811132C180910F0144
:1004A000853008F0ABCF9AE02FEF3FEF80913B0112
:1004B0008111E9C1F894D0937C00C0937A008091B7
:1004C0007A00806480937A0080917A0086FDFCCF68
:1004D000409178005091790078944D3CE2E05E07BD
:1004E00024F4241735070CF49A019150F9F630934F
:1004F0000201209301012F3FFFEF3F0709F4C6C11E
:10050000233282E038070CF0A3C180910F018F5F86
:1005100080930F012938E2E03E070CF0C1C1559AE3
:10052000549A273632400CF447CF3B9A3A9A3D987A
:100530003C9846CFF89480B7877F80BF80917A003F
:100540008F7780937A0014B817B81AB815B818B80E
:100550001BB80FB6F894A895B09260000FBEC09279
:1005600060008091600080648093600083B7817F29
:10057000846083BFF89483B7816083BF7894889543
:1005800083B78E7F83BF789410923B01529A5A9A18
:1005900080917A00806880937A0087E592E00197E5
:1005A000F1F700C0000080B7886180BF80910F0123
:1005B000853009F4C7C09AE02FEF3FEF80913B01EF
:1005C0008111BDC0F894D0937C00C0937A008091D3
:1005D0007A00806480937A0080917A0086FDFCCF57
:1005E000409178005091790078944D3C82E0580712
:1005F00024F4241735070CF49A019150F9F630933E
:100600000201209301012F3F9FEF390709F4CCC06D
:100610002332E2E03E070CF05EC080910F018F5F55
:1006200080930F01293882E038070CF0C4C0559A36
:10063000549A273632400CF0C5C03B983A983D9802
:100640003C98EFE1FEE43197F1F700C000008091A3
:100650003B01811194C0559854983B983A983D9825
:100660003C989ACE10920F0180911101811107C020
:100670001092B3001092B400109212018DCE90919E
:10068000110180911201981709F486CE8091110111
:100690008093120180911101813009F408C1809189
:1006A00011011092B3009092B400823009F4DEC0C0
:1006B0009092B3009092B4008FE295E70197F1F722
:1006C00000C0000080917101909170019093B3007F
:1006D0008093B40061CE10920F012B3AF2E03F07F5
:1006E0000CF4A0CF559854983B9A3A9A3D983C9870
:1006F000A8CF559854983B9A3A9A3D983C984CCE3E
:10070000559854983B9A3A9A3D983C98EFECF7E00C
:100710003197F1F700C00000559854983B983A98EB
:100720003D983C98FFEF21EE84E0F150204080405E
:10073000E1F700C0000030CEF701099565CE4FEF1C
:100740005FEF57CF559A549A3B983A983D983C980A
:100750009FEFE9E6F8E19150E040F040E1F700C09A
:10076000000079CF709202016092010110920F0196
:10077000559A549A3B983A983D983C980DCE559886
:1007800054983B9A3A9A3D983C98FFEF20E782E0D4
:10079000F15020408040E1F7E2CF559854983B98C3
:1007A0003A983D9A3C9AF8CD559A549A3B9A3A9A7F
:1007B0003D9A3C9A46CF559854983B983A983D9A22
:1007C0003C9A3FCF3B9A3A9A3D983C983ACF109248
:1007D0000E0178949AE02FEF3FEF80913B01811159
:1007E00077C0F894D0937C00C0937A0080917A000F
:1007F000806480937A0080917A0086FDFCCF4091DE
:1008000078005091790078944D3CF2E05F0724F431
:10081000241735070CF49A019150F9F6F8941092C8
:100820007C0050927A0080927B0078943093020191
:10083000209301012F3F8FEF380709F4F6CD2332C3
:1008400032405CF580910F018F5F80930F01EDCDF9
:1008500010920F012B3A92E039070CF45BCE5598B9
:1008600054983B9A3A9A3D983C98AACDEFE2F5E726
:100870003197F1F700C0000080915D011092B30044
:100880008093B40089CD4FEF5FEF2BCE559A549AE9
:100890003B9A3A9A3D9A3C9A93CD10920F01C5CD5E
:1008A000559854983B983A983D9A3C9A89CD9092A5
:1008B000B3001092B4008FE295E70197F1F700C002
:1008C0000000809172018093B3001092B40064CD57
:1008D0004FEF5FEF9DCF07C0EFECF7E03197F1F7F7
:1008E00000C0000001970097B9F708958093B30006
:1008F0006093B40008958FEF8093B3008093B400A9
:100900008FE090E0EFECF7E03197F1F700C00000E6
:100910000197C1F7089580913B0181111EC0F894A1
:1009200087E080937C0083E880937A0080917A004E
:10093000806480937A0080917A0086FDFCCF80915C
:1009400078009091790010927C0023EA20937A003D
:1009500021E020937B00789408958FEF9FEF089516
:1009600080913B0181111EC0F89488EC80937C003B
:1009700087E880937A0080917A00806480937A007F
:1009800080917A0086FDFCCF80917800909179006B
:1009900010927C0023EA20937A0021E020937B00D0
:1009A000789408958FEF9FEF08950F931F93CF933F
:1009B000DF93E0E0F0E080E003EA11E0D6E0C3E896
:1009C000A1E0B0E060E870E0F894D0937C00C093C0
:1009D0007A0090917A00906490937A0090917A00D6
:1009E00096FDFCCF20917800309179002170909194
:1009F0007A00906490937A0090917A0096FDFCCFF3
:100A0000409178005091790010927C0000937A0018
:100A100010937B0078944170241303C061507109D6
:100A200099F6222339F09D010E2E01C0220F0A945F
:100A3000EAF7822B3196E830F10509F0C3CFDF9158
:100A4000CF911F910F91089580910001982F990FD8
:100A5000990F990F89279091100121E0290F209378
:100A60001001282F22952695277082279695969516
:100A70008927809300010895809300010895809153
:100A80003B01811116C0F89486E080937C0083E8D6
:100A900080937A0080917A00806480937A008091BC
:100AA0007A0086FDFCCF809178009091790078944F
:100AB00008958FEF9FEF08952F923F924F925F928C
:100AC0006F927F928F929F92AF92BF92CF92DF925E
:100AD000EF92FF920F931F93CF93DF9300D000D03C
:100AE00000D0CDB7DEB71C01DC0112960D90BC9191
:100AF000A02DBE83AD83A438E3E0BE070CF0CBC0CD
:100B000080911501909116018A179B0708F48CC1FA
:100B100000911701109118010A171B0708F422C24F
:100B20000091190110911A010A171B0708F428C235
:100B300000911B0110911C010A171B0708F424C225
:100B400000911D0110911E010A171B0708F425C210
:100B500000911F01109120010A171B0708F4E6C13C
:100B600000912101109122010A171B0708F41EC2EF
:100B700000912301109124010A171B0708F41FC2DA
:100B800000912501109126010A171B0708F425C2C0
:100B900000912701109128010A171B0708F426C2AB
:100BA0000091290110912A010A171B0708F422C29B
:100BB00000912B0110912C010A171B0708F423C286
:100BC00000912D0110912E010A171B0708F424C271
:100BD00000912F01109130010A171B0708F425C25C
:100BE00080E090E0A0EDB0E489839A83AB83BC837E
:100BF0002CE0E22EF12CF701EE0FFF1FEB5EFE4F13
:100C000080819181B801681B790B80E090E00E949F
:100C1000BD0D9B01AC010E94A90C6B017C01AD8153
:100C2000BE81BD01BB0F880B990B0E94BF0D4B010C
:100C30005C01B80180E090E00E94BD0D2B013C01F9
:100C400029813A814B815C81C701B6010E944B0E1C
:100C50009B01AC01C301B2010E94A80C9B01AC0135
:100C6000C501B4010E94A80C20E030E040E251E44C
:100C70000E944B0E0E94870D8B01C701B6010E9496
:100C8000870DAB01BC01C801BA010E946B0C6983DE
:100C9000ED81FE81CBC0DC01CD90DC9080913C01E8
:100CA00090913D018C159D0508F4DFC0BFEFB9831D
:100CB00000913E0110913F010C151D0508F456C12D
:100CC00000914001109141010C151D0508F453C11C
:100CD00000914201109143010C151D0508F458C103
:100CE00000914401109145010C151D0508F459C1EE
:100CF00000914601109147010C151D0508F4B7C07D
:100D000000914801109149010C151D0508F452C1CC
:100D100000914A0110914B010C151D0508F453C1B7
:100D200000914C0110914D010C151D0508F450C1A6
:100D300000914E0110914F010C151D0508F451C191
:100D400000915001109151010C151D0508F456C178
:100D500000915201109153010C151D0508F457C163
:100D600000915401109155010C151D0508F458C14E
:100D700000915601109157010C151D0508F459C139
:100D80001AE5B981BF3F09F459C1ED81FE81BF0168
:100D9000FF0F880B990B0E94BF0D4B015C01F9817D
:100DA0006F2F70E080E090E00E94BD0D6B017C0130
:100DB000A501940160E070E081E694E40E94A80C33
:100DC0009B01AC01C701B6010E944B0E6B017C0177
:100DD000612F70E080E090E00E94BD0D2B013C018E
:100DE00020E030E04FE254E4C501B4010E94A80CB9
:100DF0009B01AC01C301B2010E944B0E9B01AC01EF
:100E0000C701B6010E94A90C20E030E048E453E499
:100E10000E94150D20E030E044E052E40E94A90C4D
:100E20000E948E0D862F08C01982FD01ED3BF24015
:100E30000CF007C189818F5D26960FB6F894DEBF4E
:100E40000FBECDBFDF91CF911F910F91FF90EF901B
:100E5000DF90CF90BF90AF909F908F907F906F90DA
:100E60005F904F903F902F90089581E2E5CFF5E09D
:100E70003F2EE5E0F0E0EE0FFF1FE65CFE4F8081C5
:100E80009181B801681B790B80E090E00E94BD0D54
:100E90009B01AC010E94A90C4B015C01B601DD0C69
:100EA000880B990B0E94BF0D2B013C01B80180E01B
:100EB00090E00E94BD0D6B017C01632D70E080E02D
:100EC00090E00E94BD0D20E030E040E05FE30E9432
:100ED0004B0E20E030E0A9010E94A90CA50194016D
:100EE0000E944B0E9B01AC01C701B6010E94A80CE9
:100EF0009B01AC01C301B2010E94A80C20E030E0CC
:100F000040E251E40E944B0E0E94870D8B01C50107
:100F1000B4010E94870DAB01BC01C801BA010E9457
:100F20006B0C162F6F3F09F02CCF84CF65E085E066
:100F300090E07C01F1E0EF1AF10870E080E090E0D1
:100F40000E94BD0D20E030E040E05FE30E944B0EC8
:100F500020E030E0A9010E94A90C69837A838B8389
:100F60009C8349CE61E081E090E0E3CF3324339469
:100F7000E1E0F0E080CF82E0382EE2E0F0E07BCFED
:100F800062E082E090E0D5CF63E083E090E0D1CFF3
:100F9000B3E03B2EE3E0F0E06ECF64E084E090E06D
:100FA000C8CFA4E03A2EE4E0F0E065CF66E086E04A
:100FB00090E0BFCFE6E03E2EE6E0F0E05CCF67E0F9
:100FC00087E090E0B6CF77E0372EE7E0F0E053CF50
:100FD00068E0362EE8E0F0E04ECF68E088E090E090
:100FE000A8CF59E0352EE9E0F0E045CF69E089E08F
:100FF00090E09FCF6AE08AE090E09BCF4AE0342EF9
:10100000EAE0F0E038CF6BE08BE090E092CF3BE09D
:10101000332EEBE0F0E02FCF6CE08CE090E089CF56
:101020002CE0322EECE0F0E026CF6DE08DE090E099
:1010300080CF9DE0392EEDE0F0E01DCF81E2810F01
:10104000FBCED101CD90DC9080913C0190913D018F
:101050008C159D0508F02CCE10E093CE1F920F92B8
:101060000FB60F9211242F933F934F935F936F937B
:101070007F938F939F93AF93BF93EF93FF932091B1
:101080005B0130915C018091590190915A01820F6E
:10109000931F90935C0180935B018FEF90E090939E
:1010A0005A01809359018FEF87BD8091370190914C
:1010B0003801A0913901B0913A010196A11DB11DED
:1010C0008093370190933801A0933901B0933A018E
:1010D00080911301843021F180913B0181110FC077
:1010E00080916A0190916B0120915B0130915C01CC
:1010F0008217930720F4809113018430C9F0FF9187
:10110000EF91BF91AF919F918F917F916F915F917F
:101110004F913F912F910F900FBE0F901F901895F8
:1011200080910E018F3FC1F28F5F80930E01D4CF6B
:10113000E0910501F09106010995009701F30E94E5
:10114000DD0B81110AC00E94040F9C0133273093EC
:101150005A012093590187BDD2CFE0910301F0914C
:101160000401099510925C0110925B01C8CF80FFC9
:1011700011C0559A81FF11C0549A82FF11C03B9A49
:1011800083FF11C03A9A84FF11C03D9A85FD11C0BA
:101190003C980895559881FDEFCF549882FDEFCF8C
:1011A0003B9883FDEFCF3A9884FDEFCF3D9885FFC4
:1011B000EFCF3C9A08951F920F920FB60F92112411
:1011C0008F939F931092810010928500109284005B
:1011D00081E0809314018093580110923B0110929A
:1011E0007C0093EA90937A0080937B009F918F918B
:1011F0000F900FBE0F901F9018951F920F920FB671
:101200000F9211242F933F934F935F936F937F938C
:101210008F939F93AF93BF93CF93DF93EF93FF93FE
:10122000209184003091850041E040933B01809102
:1012300014018823A9F11092850010928400409334
:10124000810010926C011092140180915801882342
:10125000A1F080917A0086FDFCCF8091780090917A
:101260007900909336018093350181E080937C0072
:1012700093EA90937A0080937B00FF91EF91DF9146
:10128000CF91BF91AF919F918F917F916F915F911E
:101290004F913F912F910F900FBE0F901F90189577
:1012A000C901875891098437994008F060C02658D1
:1012B0003109A4EFB0E00E94850CAA27BB27883033
:1012C00008F48CC04093140180915801811163C0CF
:1012D00080913201E82FF0E0E25AFE4F90916C01CC
:1012E00090838F5F809332018C3039F610928100A9
:1012F00010928500109284004093580110923B0197
:10130000C0916801D09169018EE591E00E94240BA3
:10131000C817D90709F0B1CF8091670187FF72C064
:1013200090911301943009F47FC09091130194308F
:1013300009F474C090911301943009F49ECF109277
:101340006F0198E7980F933030F0539823981092DC
:10135000B4001092B30090E0FC01E058F109EB30CA
:10136000F10508F08ACFE55CFF4F0C947F0C1092DA
:1013700081001092850010928400409314014093E4
:10138000580110923B0110927C0083EA80937A000E
:1013900040937B0072CF80917A0086FDFCCF8091D4
:1013A00078009091790090933401809333011092EA
:1013B0007C0083EA80937A0081E080937B009091A7
:1013C0006C019923D1F01092810010928500109247
:1013D00084008093580110923B014FCF21E030E010
:1013E000F90102C0EE0FFF1F8A95E2F7CF0190913D
:1013F0006C01892B80936C0140CF109258011092A0
:1014000032013BCFE0910701F091080163E371E005
:101410008EE591E0099510926F012FCF90916F01A9
:101420009A3009F087CF8BCF90916F019A3008F0F6
:101430007CCF9F5F90936F0120CF80915E018230BF
:1014400009F4CDC008F0B5C0882309F47BC0813011
:1014500009F0ACC080915F019091600190936E01A2
:1014600080936D011092110180911301863009F46F
:1014700004CF539A239A1092B4001092B30086E0DE
:1014800080931301FACE80911301863099F0539A1C
:10149000239A1092B4001092B300559854983B9838
:1014A0003A983D983C98109211011092120186E0F2
:1014B0008093130181E090E09C0100905E0102C0E6
:1014C000220F331F0A94E2F780916D0190916E0113
:1014D00082239323892BB9F410921101CECE8091EF
:1014E0001301833009F4C9CE80911301843009F4CB
:1014F000C4CE539A239A1092B4001092B30083E0A2
:1015000080931301BACE81E080931101B6CE82E0C0
:1015100080931301B2CE85E080931301AECE81E0BB
:1015200080931301AACE10921301A7CEE0E0F0E061
:10153000099580916E008D7F80936E0016BCE0E06F
:10154000F0E7099580911301863009F096CE6091FD
:101550006D0180EB90E00E941C0F60916E0181EBA9
:1015600090E00E941C0F6091720185E090E00E9463
:101570001C0F60915D0189E090E00E941C0F60915A
:1015800070018CE090E00E941C0F6091710184E179
:1015900090E00E941C0F539823981092B400109270
:1015A000B30081E08093130180915E0181115CCFD3
:1015B00064CE833069F18430C9F780911101909134
:1015C00064018330D1F0809163011092120123E015
:1015D00020931101809370019093710145CF809108
:1015E0001101813019F1809161011092120191E095
:1015F000909311018093720137CF809171019813FC
:10160000E2CF80916301209170018213DECF2CCF55
:1016100080911101823089F0809162011092120153
:1016200092E09093110180935D011ECF8091610142
:10163000909172018913D9CF17CF80916201909157
:101640005D018913EBCF10CFFC0180812FEF3FEFBD
:101650002827022E2295207F2025032E322F229527
:101660002F700226269532272327220F220F220FC2
:10167000202581812827022E2295207F2025032ED8
:10168000322F22952F700226269532272327220FEC
:10169000220F220F202582812827022E2295207FCB
:1016A0002025032E322F22952F70022626953227D1
:1016B0002327220F220F220F202583812827022E85
:1016C0002295207F2025032E322F22952F7002266F
:1016D000269532272327220F220F220F20258481CF
:1016E0002827022E2295207F2025032E322F229597
:1016F0002F700226269532272327220F220F220F32
:10170000202585812827022E2295207F2025032E43
:10171000322F22952F700226269532272327220F5B
:10172000220F220F202586812827022E2295207F36
:101730002025032E322F22952F7002262695322740
:101740002327220F220F220F202587812827022EF0
:101750002295207F2025032E322F22952F700226DE
:10176000269532272327220F220F220F202580853E
:101770002827022E2295207F2025032E322F229506
:101780002F700226269532272327220F220F220FA1
:1017900020254185C9018427082E8295807F8025D8
:1017A000092E982F82958F7008268695982789276D
:1017B000880F880F880F802508950FB6F894A4B17C
:1017C000209131012A2B24B921E0309131012030C0
:1017D00029F0000025B1232B25B904C0000000002A
:1017E000000000C0000000000000309525B1232358
:1017F00025B92EEA2A95F1F72BEE30B735FF0AC04E
:10180000A4B930913101309525B1232325B90FBEFC
:1018100080E0089500002A9581F721E030913101A0
:10182000203029F0000025B1232B25B904C0000089
:101830000000000000C0000000000000309525B14D
:10184000232325B9000024E52A95F1F7FC018CE05B
:10185000619170E0660F771F616072609AE041E00D
:1018600050E09A0126233723232B30913101203079
:1018700029F0000025B1232B25B904C00000000089
:10188000000000C0000000000000309525B12323B7
:1018900025B9000021E52A95F1F7440F551F9A95C7
:1018A00001F78A95A9F620B7206120BFA4B930912D
:1018B0003101309525B1232325B90FBE81E008956C
:1018C0000E94850062E770E081E790E00E94B80125
:1018D00080E090E0089597FB072E16F4009407D05F
:1018E00077FD09D00E94940C07FC05D03EF490953A
:1018F00081959F4F0895709561957F4F0895EE0FE4
:10190000FF1F0590F491E02D0994A29FB001B39FB1
:10191000C001A39F700D811D1124911DB29F700DF8
:10192000811D1124911D0895AA1BBB1B51E107C005
:10193000AA1FBB1FA617B70710F0A61BB70B881F5F
:10194000991F5A95A9F780959095BC01CD010895EE
:101950005058BB27AA270E94C00C0C94110E0E945D
:10196000030E38F00E940A0E20F039F49F3F19F45C
:1019700026F40C94000E0EF4E095E7FB0C94FA0D9F
:10198000E92F0E94220E58F3BA17620773078407E3
:10199000950720F079F4A6F50C94440E0EF4E0952A
:1019A0000B2EBA2FA02D0B01B90190010C01CA0119
:1019B000A0011124FF27591B99F0593F50F4503EC4
:1019C00068F11A16F040A22F232F342F4427585FB6
:1019D000F3CF469537952795A795F0405395C9F7CE
:1019E0007EF41F16BA0B620B730B840BBAF0915086
:1019F000A1F0FF0FBB1F661F771F881FC2F70EC025
:101A0000BA0F621F731F841F48F4879577956795F7
:101A1000B795F7959E3F08F0B0CF9395880F08F0E3
:101A20009927EE0F9795879508950E94290D0C949C
:101A3000110E0E940A0E58F00E94030E40F029F485
:101A40005F3F29F00C94FA0D51110C94450E0C9443
:101A5000000E0E94220E68F39923B1F3552391F3EF
:101A6000951B550BBB27AA2762177307840738F00D
:101A70009F5F5F4F220F331F441FAA1FA9F335D06A
:101A80000E2E3AF0E0E832D091505040E695001C1E
:101A9000CAF72BD0FE2F29D0660F771F881FBB1FD8
:101AA000261737074807AB07B0E809F0BB0B802DB6
:101AB000BF01FF2793585F4F3AF09E3F510578F0E2
:101AC0000C94FA0D0C94450E5F3FE4F3983ED4F36A
:101AD000869577956795B795F7959F5FC9F7880FB6
:101AE000911D9695879597F90895E1E0660F771F08
:101AF000881FBB1F621773078407BA0720F0621B99
:101B0000730B840BBA0BEE1F88F7E09508950E94C3
:101B10008E0D6894B1110C94450E08950E942A0E02
:101B200088F09F5798F0B92F9927B751B0F0E1F09E
:101B3000660F771F881F991F1AF0BA95C9F714C04E
:101B4000B13091F00E94440EB1E008950C94440E1F
:101B5000672F782F8827B85F39F0B93FCCF3869587
:101B600077956795B395D9F73EF4909580957095E4
:101B700061957F4F8F4F9F4F0895E89409C097FB61
:101B80003EF490958095709561957F4F8F4F9F4F54
:101B90009923A9F0F92F96E9BB279395F695879598
:101BA00077956795B795F111F8CFFAF4BB0F11F45B
:101BB00060FF1BC06F5F7F4F8F4F9F4F16C0882302
:101BC00011F096E911C0772321F09EE8872F762F38
:101BD00005C0662371F096E8862F70E060E02AF079
:101BE0009A95660F771F881FDAF7880F9695879565
:101BF00097F9089597F99F6780E870E060E008958D
:101C00009FEF80EC089500240A9416161706180614
:101C10000906089500240A941216130614060506F0
:101C20000895092E0394000C11F4882352F0BB0F81
:101C300040F4BF2B11F460FF04C06F5F7F4F8F4FE4
:101C40009F4F089557FD9058440F551F59F05F3F1F
:101C500071F04795880F97FB991F61F09F3F79F0CE
:101C600087950895121613061406551FF2CF469550
:101C7000F1DF08C0161617061806991FF1CF8695D2
:101C80007105610508940895E894BB2766277727B6
:101C9000CB0197F908950E945E0E0C94110E0E94DC
:101CA000030E38F00E940A0E20F0952311F00C94D8
:101CB000FA0D0C94000E11240C94450E0E94220E75
:101CC00070F3959FC1F3950F50E0551F629FF0018F
:101CD000729FBB27F00DB11D639FAA27F00DB11DA8
:101CE000AA1F649F6627B00DA11D661F829F222731
:101CF000B00DA11D621F739FB00DA11D621F839FB8
:101D0000A00D611D221F749F3327A00D611D231F8D
:101D1000849F600D211D822F762F6A2F11249F57DB
:101D200050409AF0F1F088234AF0EE0FFF1FBB1FDE
:101D3000661F771F881F91505040A9F79E3F51059D
:101D400080F00C94FA0D0C94450E5F3FE4F3983E3E
:101D5000D4F3869577956795B795F795E7959F5F47
:101D6000C1F7FE2B880F911D9695879597F90895D9
:101D70008F929F92AF92BF92CF92DF92EF92FF929B
:101D8000CF93DF93EC01688179818A819B81611512
:101D900071058105910521F464E279ED8BE597E009
:101DA0002DE133EF41E050E00E942A0F49015A0132
:101DB0009B01AC01A7EAB1E40E94490F6B017C01D1
:101DC000ACEEB4EFA50194010E94570FDC01CB01EA
:101DD0008C0D9D1DAE1DBF1DB7FF03C00197A1094E
:101DE000B04888839983AA83BB839F77DF91CF9183
:101DF000FF90EF90DF90CF90BF90AF909F908F902B
:101E000008950E94B80E089589E091E00E94B80EEE
:101E10000895A0E0B0E08093090190930A01A09397
:101E20000B01B0930C010895F999FECF92BD81BDCD
:101E3000F89A992780B50895262FF999FECF1FBAF1
:101E400092BD81BD20BD0FB6F894FA9AF99A0FBEE3
:101E500001960895052E97FB1EF400940E94410FF1
:101E600057FD07D00E945C0F07FC03D04EF40C9482
:101E7000410F50954095309521953F4F4F4F5F4F03
:101E8000089590958095709561957F4F8F4F9F4FE6
:101E900008950E94850CA59F900DB49F900DA49F5E
:101EA000800D911D11240895B7FF0C94490F0E94D5
:101EB000490F821B930B0895A1E21A2EAA1BBB1B8C
:101EC000FD010DC0AA1FBB1FEE1FFF1FA217B30706
:101ED000E407F50720F0A21BB30BE40BF50B661F1C
:101EE000771F881F991F1A9469F7609570958095E0
:101EF00090959B01AC01BD01CF010895F894FFCFEF
:0E1F0000AAFFFF8400810080000100000000A5
:00000001FF
