:107000000C9434380C9451380C9451380C945138F9
:107010000C9451380C9451380C9451380C945138CC
:107020000C9451380C9451380C9451380C94C33949
:107030000C9451380C9451380C949E390C9451385E
:107040000C9451380C9451380C9451380C9451389C
:107050000C9451380C9451380C9451380C94E539F7
:107060000C9451380C94513811241FBECFEFD8E046
:10707000DEBFCDBF11E0A0E0B1E0E2EAF7E702C079
:1070800005900D92A830B107D9F721E0A8E0B1E052
:1070900001C01D92AB3CB207E1F70E94823B0C9409
:1070A000CF3B0C940038CF93DF93FC01818581386E
:1070B00091F0823809F442C0803809F44AC08091C6
:1070C0002701811105C081E085BF15BE0C94000029
:1070D000DF91CF910895F0932901E0932801C081B9
:1070E0008091B101C817D1F1C093B101818190E0C5
:1070F00022813381DC01AA0FBB1FA35DBE4F2D93FC
:107100003C9324813581DC01AA0FBB1FA15DBE4FDA
:107110002D933C9326813781880F991FFC01EF5CEA
:10712000FE4F3183208386E090E090932C01809382
:107130002B0180E1DF91CF910C949F398081809366
:107140002A0190912701891709F4BDCFDF91CF91D2
:1071500008950C940038DF91CF91089520912B0170
:1071600030912C012A5F3F4F818190E04281538111
:10717000DC01AA0FBB1FA35DBE4F4D935C934481FE
:107180005581DC01AA0FBB1FA15DBE4F4D935C93DF
:1071900046815781880F991FFC01EF5CFE4F518398
:1071A000408330932C0120932B012038310508F2C5
:1071B000EC2FE695E695E695F0E0E85FFE4F8081DE
:1071C00090E02C2F277002C0959587952A95E2F7BD
:1071D00080FDAFCFF999FECF80E8C89FE001112470
:1071E00083E0FE0180935700E89507B600FCFDCFD1
:1071F0006DEA71E0ADE2B1E0AE014D52514021E0E7
:10720000FA01EA0FFB1F8D919D910C01209357000D
:10721000E89511246A177B0799F785E0FE018093B2
:107220005700E89507B600FCFDCF81E18093570039
:10723000E8958CE00E949F398091B101E82FE69596
:10724000E695E695F0E0E85FFE4F282F277081E095
:1072500090E001C0880F2A95EAF79081892B8083FE
:10726000809127018F5F8093270190912A018913D4
:107270002FCF29CF81E085BF15BE0C940000089563
:10728000089580E090E008950895F89414B817B830
:107290001AB815B818B81BB8529A5A9A14BC85E097
:1072A00085BD8FEF87BD82E080936E0010928000D5
:1072B000109281002FE83BE03093890020938800F2
:1072C00080936F005398239891EA9093B000809335
:1072D000B1001092B4001092B3008BE080BF83E045
:1072E00080937F0086E080937C0083E880937A001F
:1072F00080917A00806480937A0080917A0086FD84
:10730000FCCF10927C0083EA80937A0081E0809326
:107310007B0081E090E00E94C73B8F3F11F080939B
:1073200066001092B90181E08093B2018093BA01A6
:107330001092B4011092C90178940895189580FFB5
:1073400011C0559A81FF11C0549A82FF11C03B9A17
:1073500083FF11C03A9A84FF11C03D9A85FD11C088
:107360003C980895559881FDEFCF549882FDEFCF5A
:107370003B9883FDEFCF3A9884FDEFCF3D9885FF92
:10738000EFCF3C9A08951F920F920FB60F921124DF
:107390008F939F9310928100109285001092840029
:1073A00081E08093B2018093BA011092B9011092EA
:1073B0007C0093EA90937A0080937B009F918F9159
:1073C0000F900FBE0F901F9018951F920F920FB63F
:1073D0000F9211242F933F934F935F936F937F935B
:1073E0008F939F93AF93BF93CF93DF93EF93FF93CD
:1073F000209184003091850041E04093B901809153
:10740000B2018823A9F11092850010928400409364
:1074100081001092C9011092B2018091BA018823B3
:10742000A1F080917A0086FDFCCF80917800909148
:1074300079009093B8018093B70181E080937C003C
:1074400093EA90937A0080937B00FF91EF91DF9114
:10745000CF91BF91AF919F918F917F916F915F91EC
:107460004F913F912F910F900FBE0F901F90189545
:10747000C901875891098437994008F03FC02658C0
:107480003109A4EFB0E00E94B83BAA27BB2788309F
:1074900008F46BC04093B2018091BA01811142C0DF
:1074A0008091B401E82FF0E0E554FE4F9091C901BE
:1074B00090838F5F8093B4018C3039F610928100F5
:1074C00010928500109284004093BA011092B90185
:1074D000C091C501D091C6018BEB91E00E94C93AE1
:1074E000C817D90709F0B1CFE0910601F091070163
:1074F00065EB71E08BEB91E00995A7CF10928100CD
:1075000010928500109284004093B2014093BA011A
:107510001092B90110927C0083EA80937A00409324
:107520007B0093CF80917A0086FDFCCF809178001C
:10753000909179009093B6018093B50110927C00F0
:1075400083EA80937A0081E080937B009091C90167
:107550009923D1F01092810010928500109284003E
:107560008093BA011092B90170CF21E030E0A901F7
:1075700002C0440F551F8A95E2F7CA019091C901D4
:10758000892B8093C90161CF1092BA011092B40186
:107590005CCFFC0180812FEF3FEF2827022E229540
:1075A000207F2025032E322F22952F70022626952C
:1075B00032272327220F220F220F202581812827FF
:1075C000022E2295207F2025032E322F22952F7008
:1075D0000226269532272327220F220F220F20254D
:1075E00082812827022E2295207F2025032E322FEC
:1075F00022952F700226269532272327220F220F4D
:10760000220F202583812827022E2295207F2025E6
:10761000032E322F22952F700226269532272327FC
:10762000220F220F220F202584812827022E229547
:10763000207F2025032E322F22952F70022626959B
:1076400032272327220F220F220F2025858128276A
:10765000022E2295207F2025032E322F22952F7077
:107660000226269532272327220F220F220F2025BC
:1076700086812827022E2295207F2025032E322F57
:1076800022952F700226269532272327220F220FBC
:10769000220F202587812827022E2295207F202552
:1076A000032E322F22952F7002262695322723276C
:1076B000220F220F220F202580852827022E2295B7
:1076C000207F2025032E322F22952F70022626950B
:1076D00032272327220F220F220F20254185C9019F
:1076E0008427082E8295807F8025092E982F8295E9
:1076F0008F700826869598278927880F880F880F0E
:1077000080250895F89481E085BF82E085BF8CE1F3
:10771000E8E0F1E0DF011D928A95E9F78CED8093B6
:107720002A01109227011092B10110922C0110929F
:107730002B01789483E598E39093070180930601E9
:107740000E94453980E30E949F398FE097E20197BC
:10775000F1F700C0000080E00E949F399FEFA9E68A
:10776000B8E19150A040B040E1F700C00000EACF7E
:10777000A29FB001B39FC001A39F700D811D112472
:10778000911DB29F700D811D1124911D0895F999CD
:10779000FECF92BD81BDF89A992780B50895F894DF
:0277A000FFCF19
:0877A200FFFF44394139403971
:040000030000700089
:00000001FF
