:107000000C9434380C9446380C9446380C9446381A
:107010000C9446380C9446380C9446380C944638F8
:107020000C9446380C9446380C9446380C944638E8
:107030000C9446380C9446380C9446380C944638D8
:107040000C9446380C9446380C9448380C944638C6
:107050000C9446380C9446380C9446380C944638B8
:107060000C9446380C94463811241FBECFEFD8E05C
:10707000DEBFCDBF22E0A0E0B1E001C01D92A03292
:10708000B207E1F70E940A3A0C940F3C0C940038C6
:107090001F920F920FB60F921124EF92FF920F934F
:1070A0001F932F933F934F935F936F937F938F9390
:1070B0009F93AF93BF93CF93DF93EF93FF93909101
:1070C000C60060910401E62FF0E0EB5FFE4F2081E7
:1070D00080910301892790838227809303016F5F4A
:1070E000643808F560930401C62FD0E0FE01EB5F21
:1070F000FE4F9081953511F1FF91EF91DF91CF9186
:10710000BF91AF919F918F917F916F915F914F91BF
:107110003F912F911F910F91FF90EF900F900FBE15
:107120000F901F90189510920401C0E0D0E060E02D
:10713000FE01EB5FFE4F90819535F1F68111DCCFBA
:1071400084E8E82EF12C87010C1B1D0B70E06B5FAF
:107150007E4FA80188E991E00E94063C04381105A1
:1071600099F0C80188569E4F98012F5F3F4F2538F0
:10717000310590F4A701401B510BC00FD11FBE0178
:107180006F577F4F0E94063C81E0809302018091FF
:10719000990180939701B0CF41E050E0EECFFC0120
:1071A00080812FEF3FEF2827022E2295207F202578
:1071B000032E322F22952F70022626953227232761
:1071C000220F220F220F202581812827022E2295AF
:1071D000207F2025032E322F22952F700226269500
:1071E00032272327220F220F220F202582812827D2
:1071F000022E2295207F2025032E322F22952F70DC
:107200000226269532272327220F220F220F202520
:1072100083812827022E2295207F2025032E322FBE
:1072200022952F700226269532272327220F220F20
:10723000220F202584812827022E2295207F2025B9
:10724000032E322F22952F700226269532272327D0
:10725000220F220F220F202585812827022E22951A
:10726000207F2025032E322F22952F70022626956F
:1072700032272327220F220F220F2025868128273D
:10728000022E2295207F2025032E322F22952F704B
:107290000226269532272327220F220F220F202590
:1072A00087812827022E2295207F2025032E322F2A
:1072B00022952F700226269532272327220F220F90
:1072C000220F202580852827022E2295207F202529
:1072D000032E322F22952F70022626953227232740
:1072E000220F220F220F20254185C9018427082E55
:1072F0008295807F8025092E982F82958F70082691
:10730000869598278927880F880F880F80250895EC
:107310000FB6AAB1209101012A2B2AB921E03091A0
:107320000101203029F000002BB1232B2BB904C020
:1073300000000000000000C00000000000003095C8
:107340002BB123232BB92EEA2A95F1F72BEE30B778
:1073500035FF0AC0AAB93091010130952BB1232322
:107360002BB90FBE80E0089500002A9581F721E037
:1073700030910101203029F000002BB1232B2BB9D3
:1073800004C000000000000000C000000000000079
:1073900030952BB123232BB9000024E52A95F1F772
:1073A000FC018CE0619170E0660F771F6160726094
:1073B0009AE041E050E09A0126233723232B3091B5
:1073C0000101203029F000002BB1232B2BB904C080
:1073D00000000000000000C0000000000000309528
:1073E0002BB123232BB9000021E52A95F1F7440F97
:1073F000551F9A9501F78A95A9F620B7206120BFFD
:10740000AAB93091010130952BB123232BB90FBEBE
:1074100081E00895F894539A219A29985B9880B74F
:10742000806880BF81E085BF82E085BF8CE090E00E
:107430009093C5008093C4008091C0008D7F80939D
:10744000C0008091C20086608093C2008091C1001C
:1074500088698093C100789488E0809301013BE8BB
:10746000E32E31E0F32EF0928A01E0928901F0924E
:107470001F02E0921E02F0921D02E0921C0285E0C3
:10748000299A2FEF31EE94E0215030409040E1F7FF
:1074900000C000002998EFEFF1EE24E0E150F04049
:1074A0002040E1F700C00000815051F79AE0B92E6A
:1074B000CC24C3940AE112E021E8D22E809102018B
:1074C0008823E1F31092020180919701833009F43F
:1074D000A1C008F44CC0853009F456C108F4F0C0CE
:1074E000863061F7E0911C02F0911D0280919A01B3
:1074F0008083E0911C02F0911D0280919B018183A9
:10750000E0911C02F0911D0280919C018283809188
:107510009D01838380919E01848380919F01858357
:107520008091A00186838091A10187838091A2012F
:1075300080878091A30181878BE891E00E94CF38FA
:1075400090939601809395018BE891E00E94883991
:10755000299A8FE697E10197F1F700C0000029987A
:10756000EFE6F7E13197F1F700C00000A7CF8130D7
:1075700009F49BC0823009F0A1CFE0911C02F09188
:107580001D0280919A018083E0911C02F0911D02FE
:1075900080919B018183E0911C02F0911D028091FA
:1075A0009C01828380919D01838380919E018483CD
:1075B00080919F0185838091A00186838091A101A4
:1075C00087838091A20180878091A30181878BE8C6
:1075D00091E00E94CF38909396018093950180911D
:1075E000020181116BCF8BE891E00E948839299AC2
:1075F0008FE697E10197F1F700C000002998EFE6C8
:10760000F7E13197F1F700C0000080910201882373
:1076100051F354CFE0911C02F0911D0280919A0128
:107620008083E0911C02F0911D0280919B01818377
:10763000E0911C02F0911D0280919C018283809157
:107640009D01838380919E01848380919F01858326
:107650008091A00186838091A10187838091A201FE
:1076600080878091A30181878091A4018287809186
:10767000A501838780910201811120CF8BE891E0E1
:107680000E948839299A8FE697E10197F1F700C0A7
:1076900000002998EFE6F7E13197F1F700C000000C
:1076A00080910201882351F309CF8091000191E07C
:1076B000811190E0909300018111A6C0299AFECE1D
:1076C000D0929401E0918901F0918A0180919A0110
:1076D00080831086F89480910201811145C0A091A9
:1076E0008901B0918A0111961C921197129686E039
:1076F000EBE9F1E001900D928A95E1F78BE891E0DA
:107700000E94CF3890939601809395018BE891E089
:107710000E948839C1EAD1E086E0A82E809102015A
:10772000811122C0A0918901B0918A018A2D86958C
:1077300011968C931197129686E0FE0101900D929E
:107740008A95E1F78BE891E00E94CF3890939601FB
:10775000809395018BE891E00E948839F6E0AF0EA6
:10776000269624E8A212DACF7894299A8FE19EE433
:107770000197F1F700C000002998EFE1FEE431978E
:10778000F1F700C000009ACEF7012B2D11922A9537
:10779000E9F7C0929401F894CAE9D1E0A0911E02E1
:1077A000B0911F0288E0FE0101900D928A95E1F7E9
:1077B000E0911E02F0911F0280819181892B79F462
:1077C00082819381892B59F484819581892B39F4A5
:1077D0008681811104C087819085892B29F28BE8ED
:1077E00091E00E94CF3890939601809395018BE8A9
:1077F00091E00E948839F5E8FA95F1F700002896A3
:107800000C171D0759F6B0CF299858CEFB01DC01A3
:1078100002C001900D9241505040D8F70895F8945D
:02782000FFCF98
:040000030000700089
:00000001FF
